{
  "contractName": "EthStorage",
  "abi": [
    {
      "inputs": [],
      "stateMutability": "nonpayable",
      "type": "constructor"
    },
    {
      "anonymous": false,
      "inputs": [
        {
          "indexed": false,
          "internalType": "uint256",
          "name": "fileId",
          "type": "uint256"
        },
        {
          "indexed": false,
          "internalType": "string",
          "name": "fileName",
          "type": "string"
        },
        {
          "indexed": false,
          "internalType": "address",
          "name": "fileOwner",
          "type": "address"
        }
      ],
      "name": "FileUploaded",
      "type": "event"
    },
    {
      "inputs": [],
      "name": "owner",
      "outputs": [
        {
          "internalType": "address",
          "name": "",
          "type": "address"
        }
      ],
      "stateMutability": "view",
      "type": "function"
    },
    {
      "inputs": [
        {
          "internalType": "string",
          "name": "_fileName",
          "type": "string"
        },
        {
          "internalType": "string",
          "name": "_fileHash",
          "type": "string"
        },
        {
          "internalType": "string",
          "name": "_fileType",
          "type": "string"
        },
        {
          "internalType": "uint256",
          "name": "_fileSize",
          "type": "uint256"
        }
      ],
      "name": "uploadFile",
      "outputs": [],
      "stateMutability": "nonpayable",
      "type": "function"
    },
    {
      "inputs": [],
      "name": "retrieveMyFiles",
      "outputs": [
        {
          "components": [
            {
              "internalType": "uint256",
              "name": "fileId",
              "type": "uint256"
            },
            {
              "internalType": "string",
              "name": "fileName",
              "type": "string"
            },
            {
              "internalType": "string",
              "name": "fileType",
              "type": "string"
            },
            {
              "internalType": "uint256",
              "name": "fileSize",
              "type": "uint256"
            },
            {
              "internalType": "uint256",
              "name": "dateUploaded",
              "type": "uint256"
            },
            {
              "internalType": "address",
              "name": "fileOwner",
              "type": "address"
            },
            {
              "internalType": "string",
              "name": "fileHash",
              "type": "string"
            }
          ],
          "internalType": "struct EthStorage.File[]",
          "name": "",
          "type": "tuple[]"
        }
      ],
      "stateMutability": "view",
      "type": "function"
    },
    {
      "inputs": [
        {
          "internalType": "address payable",
          "name": "_to",
          "type": "address"
        }
      ],
      "name": "destroyContract",
      "outputs": [],
      "stateMutability": "nonpayable",
      "type": "function"
    },
    {
      "inputs": [
        {
          "internalType": "uint256",
          "name": "_fileId",
          "type": "uint256"
        }
      ],
      "name": "showFileData",
      "outputs": [
        {
          "components": [
            {
              "internalType": "uint256",
              "name": "fileId",
              "type": "uint256"
            },
            {
              "internalType": "string",
              "name": "fileName",
              "type": "string"
            },
            {
              "internalType": "string",
              "name": "fileType",
              "type": "string"
            },
            {
              "internalType": "uint256",
              "name": "fileSize",
              "type": "uint256"
            },
            {
              "internalType": "uint256",
              "name": "dateUploaded",
              "type": "uint256"
            },
            {
              "internalType": "address",
              "name": "fileOwner",
              "type": "address"
            },
            {
              "internalType": "string",
              "name": "fileHash",
              "type": "string"
            }
          ],
          "internalType": "struct EthStorage.File",
          "name": "",
          "type": "tuple"
        }
      ],
      "stateMutability": "view",
      "type": "function"
    },
    {
      "inputs": [],
      "name": "getTotalFiles",
      "outputs": [
        {
          "internalType": "uint256",
          "name": "",
          "type": "uint256"
        }
      ],
      "stateMutability": "view",
      "type": "function"
    }
  ],
  "bytecode": "0x608060405234801561001057600080fd5b5033600160006101000a81548173ffffffffffffffffffffffffffffffffffffffff021916908373ffffffffffffffffffffffffffffffffffffffff160217905550611899806100616000396000f3fe608060405234801561001057600080fd5b50600436106100625760003560e01c8063016a3738146100675780631567ec5b146100835780631fe89adf146100b35780636ccc20f0146100d1578063766e0d33146100ed5780638da5cb5b1461010b575b600080fd5b610081600480360381019061007c9190610e30565b610129565b005b61009d60048036038101906100989190610f18565b6101d2565b6040516100aa919061139f565b60405180910390f35b6100bb6104b9565b6040516100c891906112bd565b60405180910390f35b6100eb60048036038101906100e69190610e5d565b6108ec565b005b6100f5610bb5565b60405161010291906113c1565b60405180910390f35b610113610c56565b60405161012091906112a2565b60405180910390f35b600160009054906101000a900473ffffffffffffffffffffffffffffffffffffffff1673ffffffffffffffffffffffffffffffffffffffff163373ffffffffffffffffffffffffffffffffffffffff16146101b9576040517f08c379a00000000000000000000000000000000000000000000000000000000081526004016101b09061131f565b60405180910390fd5b8073ffffffffffffffffffffffffffffffffffffffff16ff5b6101da610ca0565b600160009054906101000a900473ffffffffffffffffffffffffffffffffffffffff1673ffffffffffffffffffffffffffffffffffffffff163373ffffffffffffffffffffffffffffffffffffffff161461026a576040517f08c379a00000000000000000000000000000000000000000000000000000000081526004016102619061131f565b60405180910390fd5b600260008381526020019081526020016000206040518060e0016040529081600082015481526020016001820180546102a290611566565b80601f01602080910402602001604051908101604052809291908181526020018280546102ce90611566565b801561031b5780601f106102f05761010080835404028352916020019161031b565b820191906000526020600020905b8154815290600101906020018083116102fe57829003601f168201915b5050505050815260200160028201805461033490611566565b80601f016020809104026020016040519081016040528092919081815260200182805461036090611566565b80156103ad5780601f10610382576101008083540402835291602001916103ad565b820191906000526020600020905b81548152906001019060200180831161039057829003601f168201915b5050505050815260200160038201548152602001600482015481526020016005820160009054906101000a900473ffffffffffffffffffffffffffffffffffffffff1673ffffffffffffffffffffffffffffffffffffffff1673ffffffffffffffffffffffffffffffffffffffff16815260200160068201805461043090611566565b80601f016020809104026020016040519081016040528092919081815260200182805461045c90611566565b80156104a95780601f1061047e576101008083540402835291602001916104a9565b820191906000526020600020905b81548152906001019060200180831161048c57829003601f168201915b5050505050815250509050919050565b606060006104c76000610c7c565b90506000806000600190505b838111610566573373ffffffffffffffffffffffffffffffffffffffff166002600083815260200190815260200160002060050160009054906101000a900473ffffffffffffffffffffffffffffffffffffffff1673ffffffffffffffffffffffffffffffffffffffff16141561055357828061054f906115c9565b9350505b808061055e906115c9565b9150506104d3565b5060008267ffffffffffffffff8111156105835761058261169f565b5b6040519080825280602002602001820160405280156105bc57816020015b6105a9610ca0565b8152602001906001900390816105a15790505b5090506000600190505b8481116108e1573373ffffffffffffffffffffffffffffffffffffffff166002600083815260200190815260200160002060050160009054906101000a900473ffffffffffffffffffffffffffffffffffffffff1673ffffffffffffffffffffffffffffffffffffffff1614156108ce576000600260008381526020019081526020016000206000015490506000600260008381526020019081526020016000206040518060e00160405290816000820154815260200160018201805461068c90611566565b80601f01602080910402602001604051908101604052809291908181526020018280546106b890611566565b80156107055780601f106106da57610100808354040283529160200191610705565b820191906000526020600020905b8154815290600101906020018083116106e857829003601f168201915b5050505050815260200160028201805461071e90611566565b80601f016020809104026020016040519081016040528092919081815260200182805461074a90611566565b80156107975780601f1061076c57610100808354040283529160200191610797565b820191906000526020600020905b81548152906001019060200180831161077a57829003601f168201915b5050505050815260200160038201548152602001600482015481526020016005820160009054906101000a900473ffffffffffffffffffffffffffffffffffffffff1673ffffffffffffffffffffffffffffffffffffffff1673ffffffffffffffffffffffffffffffffffffffff16815260200160068201805461081a90611566565b80601f016020809104026020016040519081016040528092919081815260200182805461084690611566565b80156108935780601f1061086857610100808354040283529160200191610893565b820191906000526020600020905b81548152906001019060200180831161087657829003601f168201915b5050505050815250509050808486815181106108b2576108b1611670565b5b602002602001018190525084806108c8906115c9565b95505050505b80806108d9906115c9565b9150506105c6565b508094505050505090565b6000845111610930576040517f08c379a00000000000000000000000000000000000000000000000000000000081526004016109279061135f565b60405180910390fd5b6000835111610974576040517f08c379a000000000000000000000000000000000000000000000000000000000815260040161096b906112df565b60405180910390fd5b60008251116109b8576040517f08c379a00000000000000000000000000000000000000000000000000000000081526004016109af9061137f565b60405180910390fd5b600081116109fb576040517f08c379a00000000000000000000000000000000000000000000000000000000081526004016109f2906112ff565b60405180910390fd5b620186a08110610a40576040517f08c379a0000000000000000000000000000000000000000000000000000000008152600401610a379061133f565b60405180910390fd5b610a4a6000610c8a565b6000610a566000610c7c565b90506040518060e001604052808281526020018681526020018481526020018381526020014281526020013373ffffffffffffffffffffffffffffffffffffffff1681526020018581525060026000838152602001908152602001600020600082015181600001556020820151816001019080519060200190610ada929190610cf3565b506040820151816002019080519060200190610af7929190610cf3565b50606082015181600301556080820151816004015560a08201518160050160006101000a81548173ffffffffffffffffffffffffffffffffffffffff021916908373ffffffffffffffffffffffffffffffffffffffff16021790555060c0820151816006019080519060200190610b6f929190610cf3565b509050507f6b91b014a57030f2c2db5fca6b08916e721a712f2510c3069caef5f5a6d33604818633604051610ba6939291906113dc565b60405180910390a15050505050565b6000600160009054906101000a900473ffffffffffffffffffffffffffffffffffffffff1673ffffffffffffffffffffffffffffffffffffffff163373ffffffffffffffffffffffffffffffffffffffff1614610c47576040517f08c379a0000000000000000000000000000000000000000000000000000000008152600401610c3e9061131f565b60405180910390fd5b610c516000610c7c565b905090565b600160009054906101000a900473ffffffffffffffffffffffffffffffffffffffff1681565b600081600001549050919050565b6001816000016000828254019250508190555050565b6040518060e001604052806000815260200160608152602001606081526020016000815260200160008152602001600073ffffffffffffffffffffffffffffffffffffffff168152602001606081525090565b828054610cff90611566565b90600052602060002090601f016020900481019282610d215760008555610d68565b82601f10610d3a57805160ff1916838001178555610d68565b82800160010185558215610d68579182015b82811115610d67578251825591602001919060010190610d4c565b5b509050610d759190610d79565b5090565b5b80821115610d92576000816000905550600101610d7a565b5090565b6000610da9610da48461143f565b61141a565b905082815260208101848484011115610dc557610dc46116d3565b5b610dd0848285611524565b509392505050565b600081359050610de781611835565b92915050565b600082601f830112610e0257610e016116ce565b5b8135610e12848260208601610d96565b91505092915050565b600081359050610e2a8161184c565b92915050565b600060208284031215610e4657610e456116dd565b5b6000610e5484828501610dd8565b91505092915050565b60008060008060808587031215610e7757610e766116dd565b5b600085013567ffffffffffffffff811115610e9557610e946116d8565b5b610ea187828801610ded565b945050602085013567ffffffffffffffff811115610ec257610ec16116d8565b5b610ece87828801610ded565b935050604085013567ffffffffffffffff811115610eef57610eee6116d8565b5b610efb87828801610ded565b9250506060610f0c87828801610e1b565b91505092959194509250565b600060208284031215610f2e57610f2d6116dd565b5b6000610f3c84828501610e1b565b91505092915050565b6000610f518383611130565b905092915050565b610f62816114d6565b82525050565b610f71816114d6565b82525050565b6000610f8282611480565b610f8c81856114a3565b935083602082028501610f9e85611470565b8060005b85811015610fda5784840389528151610fbb8582610f45565b9450610fc683611496565b925060208a01995050600181019050610fa2565b50829750879550505050505092915050565b6000610ff78261148b565b61100181856114b4565b9350611011818560208601611533565b61101a816116e2565b840191505092915050565b60006110308261148b565b61103a81856114c5565b935061104a818560208601611533565b611053816116e2565b840191505092915050565b600061106b601a836114c5565b9150611076826116f3565b602082019050919050565b600061108e601a836114c5565b91506110998261171c565b602082019050919050565b60006110b1602e836114c5565b91506110bc82611745565b604082019050919050565b60006110d4602d836114c5565b91506110df82611794565b604082019050919050565b60006110f7601a836114c5565b9150611102826117e3565b602082019050919050565b600061111a601a836114c5565b91506111258261180c565b602082019050919050565b600060e0830160008301516111486000860182611284565b50602083015184820360208601526111608282610fec565b9150506040830151848203604086015261117a8282610fec565b915050606083015161118f6060860182611284565b5060808301516111a26080860182611284565b5060a08301516111b560a0860182610f59565b5060c083015184820360c08601526111cd8282610fec565b9150508091505092915050565b600060e0830160008301516111f26000860182611284565b506020830151848203602086015261120a8282610fec565b915050604083015184820360408601526112248282610fec565b91505060608301516112396060860182611284565b50608083015161124c6080860182611284565b5060a083015161125f60a0860182610f59565b5060c083015184820360c08601526112778282610fec565b9150508091505092915050565b61128d8161151a565b82525050565b61129c8161151a565b82525050565b60006020820190506112b76000830184610f68565b92915050565b600060208201905081810360008301526112d78184610f77565b905092915050565b600060208201905081810360008301526112f88161105e565b9050919050565b6000602082019050818103600083015261131881611081565b9050919050565b60006020820190508181036000830152611338816110a4565b9050919050565b60006020820190508181036000830152611358816110c7565b9050919050565b60006020820190508181036000830152611378816110ea565b9050919050565b600060208201905081810360008301526113988161110d565b9050919050565b600060208201905081810360008301526113b981846111da565b905092915050565b60006020820190506113d66000830184611293565b92915050565b60006060820190506113f16000830186611293565b81810360208301526114038185611025565b90506114126040830184610f68565b949350505050565b6000611424611435565b90506114308282611598565b919050565b6000604051905090565b600067ffffffffffffffff82111561145a5761145961169f565b5b611463826116e2565b9050602081019050919050565b6000819050602082019050919050565b600081519050919050565b600081519050919050565b6000602082019050919050565b600082825260208201905092915050565b600082825260208201905092915050565b600082825260208201905092915050565b60006114e1826114fa565b9050919050565b60006114f3826114fa565b9050919050565b600073ffffffffffffffffffffffffffffffffffffffff82169050919050565b6000819050919050565b82818337600083830152505050565b60005b83811015611551578082015181840152602081019050611536565b83811115611560576000848401525b50505050565b6000600282049050600182168061157e57607f821691505b6020821081141561159257611591611641565b5b50919050565b6115a1826116e2565b810181811067ffffffffffffffff821117156115c0576115bf61169f565b5b80604052505050565b60006115d48261151a565b91507fffffffffffffffffffffffffffffffffffffffffffffffffffffffffffffffff82141561160757611606611612565b5b600182019050919050565b7f4e487b7100000000000000000000000000000000000000000000000000000000600052601160045260246000fd5b7f4e487b7100000000000000000000000000000000000000000000000000000000600052602260045260246000fd5b7f4e487b7100000000000000000000000000000000000000000000000000000000600052603260045260246000fd5b7f4e487b7100000000000000000000000000000000000000000000000000000000600052604160045260246000fd5b600080fd5b600080fd5b600080fd5b600080fd5b6000601f19601f8301169050919050565b7f66696c6548617368206d757374206861766520612076616c7565000000000000600082015250565b7f66696c6553697a65206d757374206861766520612076616c7565000000000000600082015250565b7f4f6e6c792074686520636f6e7472616374206f776e65722063616e2063616c6c60008201527f20746869732066756e6374696f6e000000000000000000000000000000000000602082015250565b7f5468652066696c652073697a6520697320746f6f206c617267652e204c696d6960008201527f74656420746f20313030204b4200000000000000000000000000000000000000602082015250565b7f66696c654e616d65206d757374206861766520612076616c7565000000000000600082015250565b7f66696c6554797065206d757374206861766520612076616c7565000000000000600082015250565b61183e816114e8565b811461184957600080fd5b50565b6118558161151a565b811461186057600080fd5b5056fea264697066735822122058aec4c1c0523cc224a7401721ee11d413664ba8294f5dc10804e08ee1d4b1cc64736f6c63430008070033",
  "immutableReferences": {},
  "source": "// SPDX-License-Identifier: MIT \npragma solidity 0.8.7;\n\nimport \"@openzeppelin/contracts/utils/Counters.sol\";\n\n/// @title Contract for decentalized file storage\n/// @author Travis J. Thayer\ncontract EthStorage {\n    using Counters for Counters.Counter;\n    Counters.Counter private _fileIds;\n    \n    address public owner;\n\n    mapping(uint => File) private fileData;\n\n    struct File {\n        uint fileId;\n        string fileName;\n        string fileType;\n        uint fileSize;\n        uint dateUploaded;\n        address fileOwner;\n        string fileHash;\n    }\n\n    /// @notice Emitted when a file is uploaded\n    /// @param fileId id assigned to the file\n    /// @param fileName name user assigned to file\n    /// @param fileOwner address of the uploader\n    event FileUploaded (uint256 fileId, string fileName, address fileOwner);\n    \n    /// @notice modifier limiting access control to contract owner\n    /// @dev could also use imported library (i.e., openzeppelin ownable)\n    modifier onlyOwner() {\n        require(msg.sender == owner, 'Only the contract owner can call this function');\n        _;\n    }\n    \n    /// @notice constructor function - only called once on deployment\n    /// @dev assigns contract owner to deployer\n    /// @dev might be needed for certain administrative functions\n    constructor() {\n        owner = msg.sender;\n    }\n    \n    /// @notice adds a file assigned to the account calling\n    /// @param _fileName name given to file\n    /// @param _fileHash hash value generated for file\n    /// @param _fileType type of file\n    /// @param _fileSize size of file\n    function uploadFile(string memory _fileName, string memory _fileHash, string memory _fileType, uint _fileSize) public {\n        /// @dev check data integrity for file upload\n        /// @dev this could also be done on the frontend\n        /// @dev added here to show the how and think about the why you would want to do in smart contract\n        require(bytes(_fileName).length > 0, \"fileName must have a value\");\n        require(bytes(_fileHash).length > 0, \"fileHash must have a value\");\n        require(bytes(_fileType).length > 0, \"fileType must have a value\");\n        require(_fileSize > 0, \"fileSize must have a value\");\n\n        /// @dev limiting size for testing purposes to 100KB\n        /// @dev can be combined with require statement above\n        /// @dev can also be handled on the frontend\n        require(_fileSize < 100000, \"The file size is too large. Limited to 100 KB\");\n        \n        /// @notice increment the fileId\n        _fileIds.increment();\n        /// @notice assign the fileId\n        uint fileId = _fileIds.current();\n        \n        /// @notice add file to mapping\n        fileData[fileId] = File(fileId, _fileName, _fileType, _fileSize, block.timestamp, msg.sender, _fileHash);\n\n        /// @notice emit FileUploaded event\n        emit FileUploaded(fileId, _fileName, msg.sender);\n    }\n  \n    /// @notice retrieves all files for account caller\n    function retrieveMyFiles() public view returns (File[] memory) {\n        uint256 totalFileCount = _fileIds.current();\n        uint256 myFileCount = 0;\n        uint256 currentIndex = 0;\n        \n        /// @notice determine the number of files for address\n        /// @dev this will be used to set the size of the array\n        for (uint i = 1; i <= totalFileCount; i++) {\n            if (fileData[i].fileOwner == msg.sender) {\n                myFileCount++;\n            }\n        }\n      \n        /// @dev create a new array to hold the results\n        File[] memory myFiles = new File[](myFileCount);\n        /// @dev loop through files and add to array if fileOwner correct\n        for (uint i = 1; i <= totalFileCount; i++) {\n            if (fileData[i].fileOwner == msg.sender) {\n                uint currentId = fileData[i].fileId;\n                File memory currentFile = fileData[currentId];\n                myFiles[currentIndex] = currentFile;\n                currentIndex++;\n            }\n        }\n      \n        /// @dev return the array of files - each is a File struct\n        return myFiles;\n    }\n    \n    /*  \n        The following functions have been added for testing purposes due to the nature of the contract. \n        These type of functions would not be present on a production version.\n        However, other administrative functions might be present to contract owner such as upgradeability.\n    */\n    \n    /// @notice function allowing contract owner to terminate contract functionality\n    /// @dev added due to nature of contract\n    /// @dev actual contract would not contain this functionality\n    function destroyContract(address payable _to) public onlyOwner {\n        selfdestruct(_to);\n    }\n    \n    /// @notice allows contract owner to check file data\n    /// @param _fileId fileId to pull data\n    /// @dev only present for testing purposes\n    /// @dev this type of function would not be present on production version\n    function showFileData (uint256 _fileId) public onlyOwner view returns (File memory) {\n        return fileData[_fileId];\n    }\n    \n    /// @notice allows contract owner to check total files uploaded\n    /// @dev only present for testing purposes\n    /// @dev this type of function would not be present on production version\n    function getTotalFiles() public view onlyOwner returns (uint256) {\n        return _fileIds.current();\n    }\n}",
  "sourcePath": "/Users/travisthayer/Ethereum/Consensys-Bootcamp/blockchain-developer-bootcamp-final-project/contracts/EthStorage.sol",
  "compiler": {
    "name": "solc",
    "version": "0.8.7+commit.e28d00a7.Emscripten.clang"
  },
  "schemaVersion": "3.4.1",
  "updatedAt": "2021-11-24T15:31:26.068Z",
  "devdoc": {
    "author": "Travis J. Thayer",
    "events": {
      "FileUploaded(uint256,string,address)": {
        "params": {
          "fileId": "id assigned to the file",
          "fileName": "name user assigned to file",
          "fileOwner": "address of the uploader"
        }
      }
    },
    "kind": "dev",
    "methods": {
      "constructor": {
        "details": "assigns contract owner to deployermight be needed for certain administrative functions"
      },
      "destroyContract(address)": {
        "details": "added due to nature of contractactual contract would not contain this functionality"
      },
      "getTotalFiles()": {
        "details": "only present for testing purposesthis type of function would not be present on production version"
      },
      "showFileData(uint256)": {
        "details": "only present for testing purposesthis type of function would not be present on production version",
        "params": {
          "_fileId": "fileId to pull data"
        }
      },
      "uploadFile(string,string,string,uint256)": {
        "params": {
          "_fileHash": "hash value generated for file",
          "_fileName": "name given to file",
          "_fileSize": "size of file",
          "_fileType": "type of file"
        }
      }
    },
    "title": "Contract for decentalized file storage",
    "version": 1
  },
  "userdoc": {
    "events": {
      "FileUploaded(uint256,string,address)": {
        "notice": "Emitted when a file is uploaded"
      }
    },
    "kind": "user",
    "methods": {
      "constructor": {
        "notice": "constructor function - only called once on deployment"
      },
      "destroyContract(address)": {
        "notice": "function allowing contract owner to terminate contract functionality"
      },
      "getTotalFiles()": {
        "notice": "allows contract owner to check total files uploaded"
      },
      "retrieveMyFiles()": {
        "notice": "retrieves all files for account caller"
      },
      "showFileData(uint256)": {
        "notice": "allows contract owner to check file data"
      },
      "uploadFile(string,string,string,uint256)": {
        "notice": "adds a file assigned to the account calling"
      }
    },
    "version": 1
  }
}