{
  "contractName": "EthStorage",
  "abi": [
    {
      "inputs": [],
      "stateMutability": "nonpayable",
      "type": "constructor"
    },
    {
      "anonymous": false,
      "inputs": [
        {
          "indexed": false,
          "internalType": "uint256",
          "name": "fileId",
          "type": "uint256"
        },
        {
          "indexed": false,
          "internalType": "string",
          "name": "fileName",
          "type": "string"
        },
        {
          "indexed": false,
          "internalType": "address",
          "name": "fileOwner",
          "type": "address"
        }
      ],
      "name": "FileUploaded",
      "type": "event"
    },
    {
      "inputs": [],
      "name": "owner",
      "outputs": [
        {
          "internalType": "address",
          "name": "",
          "type": "address"
        }
      ],
      "stateMutability": "view",
      "type": "function",
      "constant": true
    },
    {
      "inputs": [
        {
          "internalType": "string",
          "name": "_fileName",
          "type": "string"
        },
        {
          "internalType": "string",
          "name": "_fileHash",
          "type": "string"
        },
        {
          "internalType": "string",
          "name": "_fileType",
          "type": "string"
        },
        {
          "internalType": "uint256",
          "name": "_fileSize",
          "type": "uint256"
        }
      ],
      "name": "uploadFile",
      "outputs": [],
      "stateMutability": "nonpayable",
      "type": "function"
    },
    {
      "inputs": [
        {
          "internalType": "address",
          "name": "_acct",
          "type": "address"
        }
      ],
      "name": "retrieveMyFiles",
      "outputs": [
        {
          "components": [
            {
              "internalType": "uint256",
              "name": "fileId",
              "type": "uint256"
            },
            {
              "internalType": "string",
              "name": "fileName",
              "type": "string"
            },
            {
              "internalType": "string",
              "name": "fileType",
              "type": "string"
            },
            {
              "internalType": "uint256",
              "name": "fileSize",
              "type": "uint256"
            },
            {
              "internalType": "uint256",
              "name": "dateUploaded",
              "type": "uint256"
            },
            {
              "internalType": "address",
              "name": "fileOwner",
              "type": "address"
            },
            {
              "internalType": "string",
              "name": "fileHash",
              "type": "string"
            }
          ],
          "internalType": "struct EthStorage.File[]",
          "name": "",
          "type": "tuple[]"
        }
      ],
      "stateMutability": "view",
      "type": "function",
      "constant": true
    },
    {
      "inputs": [
        {
          "internalType": "address payable",
          "name": "_to",
          "type": "address"
        }
      ],
      "name": "destroyContract",
      "outputs": [],
      "stateMutability": "nonpayable",
      "type": "function"
    },
    {
      "inputs": [
        {
          "internalType": "uint256",
          "name": "_fileId",
          "type": "uint256"
        }
      ],
      "name": "showFileData",
      "outputs": [
        {
          "components": [
            {
              "internalType": "uint256",
              "name": "fileId",
              "type": "uint256"
            },
            {
              "internalType": "string",
              "name": "fileName",
              "type": "string"
            },
            {
              "internalType": "string",
              "name": "fileType",
              "type": "string"
            },
            {
              "internalType": "uint256",
              "name": "fileSize",
              "type": "uint256"
            },
            {
              "internalType": "uint256",
              "name": "dateUploaded",
              "type": "uint256"
            },
            {
              "internalType": "address",
              "name": "fileOwner",
              "type": "address"
            },
            {
              "internalType": "string",
              "name": "fileHash",
              "type": "string"
            }
          ],
          "internalType": "struct EthStorage.File",
          "name": "",
          "type": "tuple"
        }
      ],
      "stateMutability": "view",
      "type": "function",
      "constant": true
    },
    {
      "inputs": [],
      "name": "getTotalFiles",
      "outputs": [
        {
          "internalType": "uint256",
          "name": "",
          "type": "uint256"
        }
      ],
      "stateMutability": "view",
      "type": "function",
      "constant": true
    }
  ],
  "bytecode": "0x608060405234801561001057600080fd5b5033600160006101000a81548173ffffffffffffffffffffffffffffffffffffffff021916908373ffffffffffffffffffffffffffffffffffffffff160217905550611906806100616000396000f3fe608060405234801561001057600080fd5b50600436106100625760003560e01c8063016a3738146100675780631567ec5b146100835780633413c917146100b35780636ccc20f0146100e3578063766e0d33146100ff5780638da5cb5b1461011d575b600080fd5b610081600480360381019061007c9190610e86565b61013b565b005b61009d60048036038101906100989190610f6e565b6101e4565b6040516100aa91906113f5565b60405180910390f35b6100cd60048036038101906100c89190610e59565b6104cb565b6040516100da9190611313565b60405180910390f35b6100fd60048036038101906100f89190610eb3565b610900565b005b610107610bc9565b6040516101149190611417565b60405180910390f35b610125610c6a565b60405161013291906112f8565b60405180910390f35b600160009054906101000a900473ffffffffffffffffffffffffffffffffffffffff1673ffffffffffffffffffffffffffffffffffffffff163373ffffffffffffffffffffffffffffffffffffffff16146101cb576040517f08c379a00000000000000000000000000000000000000000000000000000000081526004016101c290611375565b60405180910390fd5b8073ffffffffffffffffffffffffffffffffffffffff16ff5b6101ec610cb4565b600160009054906101000a900473ffffffffffffffffffffffffffffffffffffffff1673ffffffffffffffffffffffffffffffffffffffff163373ffffffffffffffffffffffffffffffffffffffff161461027c576040517f08c379a000000000000000000000000000000000000000000000000000000000815260040161027390611375565b60405180910390fd5b600260008381526020019081526020016000206040518060e0016040529081600082015481526020016001820180546102b4906115bc565b80601f01602080910402602001604051908101604052809291908181526020018280546102e0906115bc565b801561032d5780601f106103025761010080835404028352916020019161032d565b820191906000526020600020905b81548152906001019060200180831161031057829003601f168201915b50505050508152602001600282018054610346906115bc565b80601f0160208091040260200160405190810160405280929190818152602001828054610372906115bc565b80156103bf5780601f10610394576101008083540402835291602001916103bf565b820191906000526020600020905b8154815290600101906020018083116103a257829003601f168201915b5050505050815260200160038201548152602001600482015481526020016005820160009054906101000a900473ffffffffffffffffffffffffffffffffffffffff1673ffffffffffffffffffffffffffffffffffffffff1673ffffffffffffffffffffffffffffffffffffffff168152602001600682018054610442906115bc565b80601f016020809104026020016040519081016040528092919081815260200182805461046e906115bc565b80156104bb5780601f10610490576101008083540402835291602001916104bb565b820191906000526020600020905b81548152906001019060200180831161049e57829003601f168201915b5050505050815250509050919050565b606060006104d96000610c90565b90506000806000600190505b838111610578578573ffffffffffffffffffffffffffffffffffffffff166002600083815260200190815260200160002060050160009054906101000a900473ffffffffffffffffffffffffffffffffffffffff1673ffffffffffffffffffffffffffffffffffffffff1614156105655782806105619061161f565b9350505b80806105709061161f565b9150506104e5565b5060008267ffffffffffffffff811115610595576105946116f5565b5b6040519080825280602002602001820160405280156105ce57816020015b6105bb610cb4565b8152602001906001900390816105b35790505b5090506000600190505b8481116108f3578673ffffffffffffffffffffffffffffffffffffffff166002600083815260200190815260200160002060050160009054906101000a900473ffffffffffffffffffffffffffffffffffffffff1673ffffffffffffffffffffffffffffffffffffffff1614156108e0576000600260008381526020019081526020016000206000015490506000600260008381526020019081526020016000206040518060e00160405290816000820154815260200160018201805461069e906115bc565b80601f01602080910402602001604051908101604052809291908181526020018280546106ca906115bc565b80156107175780601f106106ec57610100808354040283529160200191610717565b820191906000526020600020905b8154815290600101906020018083116106fa57829003601f168201915b50505050508152602001600282018054610730906115bc565b80601f016020809104026020016040519081016040528092919081815260200182805461075c906115bc565b80156107a95780601f1061077e576101008083540402835291602001916107a9565b820191906000526020600020905b81548152906001019060200180831161078c57829003601f168201915b5050505050815260200160038201548152602001600482015481526020016005820160009054906101000a900473ffffffffffffffffffffffffffffffffffffffff1673ffffffffffffffffffffffffffffffffffffffff1673ffffffffffffffffffffffffffffffffffffffff16815260200160068201805461082c906115bc565b80601f0160208091040260200160405190810160405280929190818152602001828054610858906115bc565b80156108a55780601f1061087a576101008083540402835291602001916108a5565b820191906000526020600020905b81548152906001019060200180831161088857829003601f168201915b5050505050815250509050808486815181106108c4576108c36116c6565b5b602002602001018190525084806108da9061161f565b95505050505b80806108eb9061161f565b9150506105d8565b5080945050505050919050565b6000845111610944576040517f08c379a000000000000000000000000000000000000000000000000000000000815260040161093b906113b5565b60405180910390fd5b6000835111610988576040517f08c379a000000000000000000000000000000000000000000000000000000000815260040161097f90611335565b60405180910390fd5b60008251116109cc576040517f08c379a00000000000000000000000000000000000000000000000000000000081526004016109c3906113d5565b60405180910390fd5b60008111610a0f576040517f08c379a0000000000000000000000000000000000000000000000000000000008152600401610a0690611355565b60405180910390fd5b620186a08110610a54576040517f08c379a0000000000000000000000000000000000000000000000000000000008152600401610a4b90611395565b60405180910390fd5b610a5e6000610c9e565b6000610a6a6000610c90565b90506040518060e001604052808281526020018681526020018481526020018381526020014281526020013373ffffffffffffffffffffffffffffffffffffffff1681526020018581525060026000838152602001908152602001600020600082015181600001556020820151816001019080519060200190610aee929190610d07565b506040820151816002019080519060200190610b0b929190610d07565b50606082015181600301556080820151816004015560a08201518160050160006101000a81548173ffffffffffffffffffffffffffffffffffffffff021916908373ffffffffffffffffffffffffffffffffffffffff16021790555060c0820151816006019080519060200190610b83929190610d07565b509050507f6b91b014a57030f2c2db5fca6b08916e721a712f2510c3069caef5f5a6d33604818633604051610bba93929190611432565b60405180910390a15050505050565b6000600160009054906101000a900473ffffffffffffffffffffffffffffffffffffffff1673ffffffffffffffffffffffffffffffffffffffff163373ffffffffffffffffffffffffffffffffffffffff1614610c5b576040517f08c379a0000000000000000000000000000000000000000000000000000000008152600401610c5290611375565b60405180910390fd5b610c656000610c90565b905090565b600160009054906101000a900473ffffffffffffffffffffffffffffffffffffffff1681565b600081600001549050919050565b6001816000016000828254019250508190555050565b6040518060e001604052806000815260200160608152602001606081526020016000815260200160008152602001600073ffffffffffffffffffffffffffffffffffffffff168152602001606081525090565b828054610d13906115bc565b90600052602060002090601f016020900481019282610d355760008555610d7c565b82601f10610d4e57805160ff1916838001178555610d7c565b82800160010185558215610d7c579182015b82811115610d7b578251825591602001919060010190610d60565b5b509050610d899190610d8d565b5090565b5b80821115610da6576000816000905550600101610d8e565b5090565b6000610dbd610db884611495565b611470565b905082815260208101848484011115610dd957610dd8611729565b5b610de484828561157a565b509392505050565b600081359050610dfb8161188b565b92915050565b600081359050610e10816118a2565b92915050565b600082601f830112610e2b57610e2a611724565b5b8135610e3b848260208601610daa565b91505092915050565b600081359050610e53816118b9565b92915050565b600060208284031215610e6f57610e6e611733565b5b6000610e7d84828501610dec565b91505092915050565b600060208284031215610e9c57610e9b611733565b5b6000610eaa84828501610e01565b91505092915050565b60008060008060808587031215610ecd57610ecc611733565b5b600085013567ffffffffffffffff811115610eeb57610eea61172e565b5b610ef787828801610e16565b945050602085013567ffffffffffffffff811115610f1857610f1761172e565b5b610f2487828801610e16565b935050604085013567ffffffffffffffff811115610f4557610f4461172e565b5b610f5187828801610e16565b9250506060610f6287828801610e44565b91505092959194509250565b600060208284031215610f8457610f83611733565b5b6000610f9284828501610e44565b91505092915050565b6000610fa78383611186565b905092915050565b610fb88161152c565b82525050565b610fc78161152c565b82525050565b6000610fd8826114d6565b610fe281856114f9565b935083602082028501610ff4856114c6565b8060005b8581101561103057848403895281516110118582610f9b565b945061101c836114ec565b925060208a01995050600181019050610ff8565b50829750879550505050505092915050565b600061104d826114e1565b611057818561150a565b9350611067818560208601611589565b61107081611738565b840191505092915050565b6000611086826114e1565b611090818561151b565b93506110a0818560208601611589565b6110a981611738565b840191505092915050565b60006110c1601a8361151b565b91506110cc82611749565b602082019050919050565b60006110e4601a8361151b565b91506110ef82611772565b602082019050919050565b6000611107602e8361151b565b91506111128261179b565b604082019050919050565b600061112a602d8361151b565b9150611135826117ea565b604082019050919050565b600061114d601a8361151b565b915061115882611839565b602082019050919050565b6000611170601a8361151b565b915061117b82611862565b602082019050919050565b600060e08301600083015161119e60008601826112da565b50602083015184820360208601526111b68282611042565b915050604083015184820360408601526111d08282611042565b91505060608301516111e560608601826112da565b5060808301516111f860808601826112da565b5060a083015161120b60a0860182610faf565b5060c083015184820360c08601526112238282611042565b9150508091505092915050565b600060e08301600083015161124860008601826112da565b50602083015184820360208601526112608282611042565b9150506040830151848203604086015261127a8282611042565b915050606083015161128f60608601826112da565b5060808301516112a260808601826112da565b5060a08301516112b560a0860182610faf565b5060c083015184820360c08601526112cd8282611042565b9150508091505092915050565b6112e381611570565b82525050565b6112f281611570565b82525050565b600060208201905061130d6000830184610fbe565b92915050565b6000602082019050818103600083015261132d8184610fcd565b905092915050565b6000602082019050818103600083015261134e816110b4565b9050919050565b6000602082019050818103600083015261136e816110d7565b9050919050565b6000602082019050818103600083015261138e816110fa565b9050919050565b600060208201905081810360008301526113ae8161111d565b9050919050565b600060208201905081810360008301526113ce81611140565b9050919050565b600060208201905081810360008301526113ee81611163565b9050919050565b6000602082019050818103600083015261140f8184611230565b905092915050565b600060208201905061142c60008301846112e9565b92915050565b600060608201905061144760008301866112e9565b8181036020830152611459818561107b565b90506114686040830184610fbe565b949350505050565b600061147a61148b565b905061148682826115ee565b919050565b6000604051905090565b600067ffffffffffffffff8211156114b0576114af6116f5565b5b6114b982611738565b9050602081019050919050565b6000819050602082019050919050565b600081519050919050565b600081519050919050565b6000602082019050919050565b600082825260208201905092915050565b600082825260208201905092915050565b600082825260208201905092915050565b600061153782611550565b9050919050565b600061154982611550565b9050919050565b600073ffffffffffffffffffffffffffffffffffffffff82169050919050565b6000819050919050565b82818337600083830152505050565b60005b838110156115a757808201518184015260208101905061158c565b838111156115b6576000848401525b50505050565b600060028204905060018216806115d457607f821691505b602082108114156115e8576115e7611697565b5b50919050565b6115f782611738565b810181811067ffffffffffffffff82111715611616576116156116f5565b5b80604052505050565b600061162a82611570565b91507fffffffffffffffffffffffffffffffffffffffffffffffffffffffffffffffff82141561165d5761165c611668565b5b600182019050919050565b7f4e487b7100000000000000000000000000000000000000000000000000000000600052601160045260246000fd5b7f4e487b7100000000000000000000000000000000000000000000000000000000600052602260045260246000fd5b7f4e487b7100000000000000000000000000000000000000000000000000000000600052603260045260246000fd5b7f4e487b7100000000000000000000000000000000000000000000000000000000600052604160045260246000fd5b600080fd5b600080fd5b600080fd5b600080fd5b6000601f19601f8301169050919050565b7f66696c6548617368206d757374206861766520612076616c7565000000000000600082015250565b7f66696c6553697a65206d757374206861766520612076616c7565000000000000600082015250565b7f4f6e6c792074686520636f6e7472616374206f776e65722063616e2063616c6c60008201527f20746869732066756e6374696f6e000000000000000000000000000000000000602082015250565b7f5468652066696c652073697a6520697320746f6f206c617267652e204c696d6960008201527f74656420746f20313030204b4200000000000000000000000000000000000000602082015250565b7f66696c654e616d65206d757374206861766520612076616c7565000000000000600082015250565b7f66696c6554797065206d757374206861766520612076616c7565000000000000600082015250565b6118948161152c565b811461189f57600080fd5b50565b6118ab8161153e565b81146118b657600080fd5b50565b6118c281611570565b81146118cd57600080fd5b5056fea2646970667358221220057e476d870768b6c1c30f3dfb8ec282afdc3940700834c568b9eb9d92160a8d64736f6c63430008070033",
  "immutableReferences": {},
  "source": "// SPDX-License-Identifier: MIT \npragma solidity 0.8.7;\n\nimport \"@openzeppelin/contracts/utils/Counters.sol\";\n\n/// @title Contract for decentalized file storage\n/// @author Travis J. Thayer\ncontract EthStorage {\n    using Counters for Counters.Counter;\n    Counters.Counter private _fileIds;\n    \n    address public owner;\n\n    mapping(uint => File) private fileData;\n\n    struct File {\n        uint fileId;\n        string fileName;\n        string fileType;\n        uint fileSize;\n        uint dateUploaded;\n        address fileOwner;\n        string fileHash;\n    }\n\n    /// @notice Emitted when a file is uploaded\n    /// @param fileId id assigned to the file\n    /// @param fileName name user assigned to file\n    /// @param fileOwner address of the uploader\n    event FileUploaded (uint256 fileId, string fileName, address fileOwner);\n    \n    /// @notice modifier limiting access control to contract owner\n    /// @dev could also use imported library (i.e., openzeppelin ownable)\n    modifier onlyOwner() {\n        require(msg.sender == owner, 'Only the contract owner can call this function');\n        _;\n    }\n    \n    /// @notice constructor function - only called once on deployment\n    /// @dev assigns contract owner to deployer\n    /// @dev might be needed for certain administrative functions\n    constructor() {\n        owner = msg.sender;\n    }\n    \n    /// @notice adds a file assigned to the account calling\n    /// @param _fileName name given to file\n    /// @param _fileHash hash value generated for file\n    /// @param _fileType type of file\n    /// @param _fileSize size of file\n    function uploadFile(string memory _fileName, string memory _fileHash, string memory _fileType, uint _fileSize) public {\n        /// @dev check data integrity for file upload\n        /// @dev this could also be done on the frontend\n        /// @dev added here to show the how and think about the why you would want to do in smart contract\n        require(bytes(_fileName).length > 0, \"fileName must have a value\");\n        require(bytes(_fileHash).length > 0, \"fileHash must have a value\");\n        require(bytes(_fileType).length > 0, \"fileType must have a value\");\n        require(_fileSize > 0, \"fileSize must have a value\");\n\n        /// @dev limiting size for testing purposes to 100KB\n        /// @dev can be combined with require statement above\n        /// @dev can also be handled on the frontend\n        require(_fileSize < 100000, \"The file size is too large. Limited to 100 KB\");\n        \n        /// @notice increment the fileId\n        _fileIds.increment();\n        /// @notice assign the fileId\n        uint fileId = _fileIds.current();\n        \n        /// @notice add file to mapping\n        fileData[fileId] = File(fileId, _fileName, _fileType, _fileSize, block.timestamp, msg.sender, _fileHash);\n\n        /// @notice emit FileUploaded event\n        emit FileUploaded(fileId, _fileName, msg.sender);\n    }\n  \n    /// @notice retrieves all files for account caller\n    /// @param _acct account of caller\n    function retrieveMyFiles(address _acct) public view returns (File[] memory) {\n        uint256 totalFileCount = _fileIds.current();\n        uint256 myFileCount = 0;\n        uint256 currentIndex = 0;\n        \n        /// @notice determine the number of files for address\n        /// @dev this will be used to set the size of the array\n        for (uint i = 1; i <= totalFileCount; i++) {\n            if (fileData[i].fileOwner == _acct) {\n                myFileCount++;\n            }\n        }\n      \n        /// @dev create a new array to hold the results\n        File[] memory myFiles = new File[](myFileCount);\n        /// @dev loop through files and add to array if fileOwner correct\n        for (uint i = 1; i <= totalFileCount; i++) {\n            if (fileData[i].fileOwner == _acct) {\n                uint currentId = fileData[i].fileId;\n                File memory currentFile = fileData[currentId];\n                myFiles[currentIndex] = currentFile;\n                currentIndex++;\n            }\n        }\n      \n        /// @dev return the array of files - each is a File struct\n        return myFiles;\n    }\n    \n    /*  \n        The following functions have been added for testing purposes due to the nature of the contract. \n        These type of functions would not be present on a production version.\n        However, other administrative functions might be present to contract owner such as upgradeability.\n    */\n    \n    /// @notice function allowing contract owner to terminate contract functionality\n    /// @dev added due to nature of contract\n    /// @dev actual contract would not contain this functionality\n    function destroyContract(address payable _to) public onlyOwner {\n        selfdestruct(_to);\n    }\n    \n    /// @notice allows contract owner to check file data\n    /// @param _fileId fileId to pull data\n    /// @dev only present for testing purposes\n    /// @dev this type of function would not be present on production version\n    function showFileData (uint256 _fileId) public onlyOwner view returns (File memory) {\n        return fileData[_fileId];\n    }\n    \n    /// @notice allows contract owner to check total files uploaded\n    /// @dev only present for testing purposes\n    /// @dev this type of function would not be present on production version\n    function getTotalFiles() public view onlyOwner returns (uint256) {\n        return _fileIds.current();\n    }\n}",
  "sourcePath": "/Users/travisthayer/Ethereum/Consensys-Bootcamp/blockchain-developer-bootcamp-final-project/contracts/EthStorage.sol",
  "compiler": {
    "name": "solc",
    "version": "0.8.7+commit.e28d00a7.Emscripten.clang"
  },
  "schemaVersion": "3.4.1",
  "updatedAt": "2021-11-23T14:19:17.838Z",
  "networkType": "ethereum",
  "devdoc": {
    "author": "Travis J. Thayer",
    "events": {
      "FileUploaded(uint256,string,address)": {
        "params": {
          "fileId": "id assigned to the file",
          "fileName": "name user assigned to file",
          "fileOwner": "address of the uploader"
        }
      }
    },
    "kind": "dev",
    "methods": {
      "constructor": {
        "details": "assigns contract owner to deployermight be needed for certain administrative functions"
      },
      "destroyContract(address)": {
        "details": "added due to nature of contractactual contract would not contain this functionality"
      },
      "getTotalFiles()": {
        "details": "only present for testing purposesthis type of function would not be present on production version"
      },
      "retrieveMyFiles(address)": {
        "params": {
          "_acct": "account of caller"
        }
      },
      "showFileData(uint256)": {
        "details": "only present for testing purposesthis type of function would not be present on production version",
        "params": {
          "_fileId": "fileId to pull data"
        }
      },
      "uploadFile(string,string,string,uint256)": {
        "params": {
          "_fileHash": "hash value generated for file",
          "_fileName": "name given to file",
          "_fileSize": "size of file",
          "_fileType": "type of file"
        }
      }
    },
    "title": "Contract for decentalized file storage",
    "version": 1
  },
  "userdoc": {
    "events": {
      "FileUploaded(uint256,string,address)": {
        "notice": "Emitted when a file is uploaded"
      }
    },
    "kind": "user",
    "methods": {
      "constructor": {
        "notice": "constructor function - only called once on deployment"
      },
      "destroyContract(address)": {
        "notice": "function allowing contract owner to terminate contract functionality"
      },
      "getTotalFiles()": {
        "notice": "allows contract owner to check total files uploaded"
      },
      "retrieveMyFiles(address)": {
        "notice": "retrieves all files for account caller"
      },
      "showFileData(uint256)": {
        "notice": "allows contract owner to check file data"
      },
      "uploadFile(string,string,string,uint256)": {
        "notice": "adds a file assigned to the account calling"
      }
    },
    "version": 1
  }
}